:020000040800F2
:10000000600600206D0100087501000877010008F6
:10001000790100087B0100087D0100080000000054
:100020000000000000000000000000007F01000848
:10003000810100080000000083010008850100081C
:100040008701000887010008870100088701000870
:100050008701000887010008870100088701000860
:100060008701000887010008870100088701000850
:100070008701000887010008870100088701000840
:100080008701000887010008870100088701000830
:100090008701000887010008870100088701000820
:1000A0008701000887010008870100088701000810
:1000B0008701000887010008870100088701000800
:1000C00087010008870100088701000887010008F0
:1000D00087010008870100088701000887010008E0
:1000E00087010008870100088701000800F002F876
:1000F00000F02CF80AA090E8000C82448344AAF196
:100100000107DA4501D100F021F8AFF2090EBAE893
:100110000F0013F0010F18BFFB1A43F0010318473B
:10012000D8030000E8030000002300240025002677
:10013000103A28BF78C1FBD8520728BF30C148BF4A
:100140000B6070471FB51FBD10B510BD00F031F832
:100150001146FFF7F7FF00F075F900F04FF803B410
:10016000FFF7F2FF03BC00F057F800000948804792
:1001700009480047FEE7FEE7FEE7FEE7FEE7FEE789
:10018000FEE7FEE7FEE7FEE704480549054A064BA1
:100190007047000011030008ED0000086000002017
:1001A0006006002060020020600200207047704757
:1001B0007047754600F02CF8AE4605006946534678
:1001C00020F00700854618B020B5FFF7DDFFBDE839
:1001D00020404FF000064FF000074FF000084FF0AE
:1001E000000B21F00701AC46ACE8C009ACE8C0093F
:1001F000ACE8C009ACE8C0098D46704710B50446AC
:10020000AFF300802046BDE81040FFF7A8BF000014
:10021000004870470000002001491820ABBEFEE7EF
:1002200026000200704710B500F002F810BD000073
:100230000CB50020019000903348006840F48030F5
:100240003149086000BF3048006800F40030009079
:100250000198401C0190009818B90198B0F5A06F62
:10026000F1D12948006800F4003010B1012000905D
:1002700001E0002000900098012843D12348006845
:1002800040F01000214908600846006820F0030093
:1002900008600846006840F0020008601A4840689C
:1002A000194948600846406848600846406840F47C
:1002B000806048600846406820F47C10486008462A
:1002C000406840F4E81048600846006840F08070DC
:1002D000086000BF0C48006800F000700028F9D0EA
:1002E0000948406820F00300074948600846406814
:1002F00040F00200486000BF0348406800F00C0076
:100300000828F9D10CBD0000001002400020024076
:1003100010B51348006840F0010011490860084614
:100320004068104908400E494860084600680E4978
:1003300008400B4908600846006820F480200860E7
:100340000846406820F4FE0048604FF41F008860B3
:10035000FFF769FF4FF000600449086010BD00001E
:10036000001002400000FFF8FFFFF6FE08ED00E07D
:1003700010B50446FF20134908601348406940F453
:100380008040114948610F480838006840EA14105D
:100390000C490839086000F08DF8FF200949086011
:1003A0000948406940F480400749486105480838D9
:1003B000006804F00F01084302490839086000F0A2
:1003C00079F810BD140801400010014010B5044632
:1003D000FF20134908601348C06840F48040114969
:1003E000C8600F480838006840EA14100C49083902
:1003F000086000F05FF8FF20094908600948C068FC
:1004000040F480400749C86005480838006804F097
:100410000F01084302490839086000F04BF810BD8D
:100420001408014000100140002107E0002200E014
:10043000521C4FF6E8539A42FADB491C8142F5DB25
:100440007047000014201449886100201349086097
:100450004FF02230091F0860000611494860002053
:1004600008600220FFF784FF2820FFF781FF0E209D
:10047000FFF77EFF0120FFF77BFF0BE08020FFF7F7
:1004800077FF08A000F02CF8C020FFF771FF07A04D
:1004900000F026F8F2E700000010024004080140D6
:1004A0000010014042616464790000004D6F726E7B
:1004B000696E670000B50948C06840F4004007490C
:1004C000C8600520FFF7B0FF0448406940F40040D1
:1004D000024948610520FFF7A7FF00BD0010014059
:1004E00010B5044603E014F8010BFFF76FFF207806
:1004F0000028F8D110BD0000080500080000002009
:0805000060060000280100085C
:04000005080000ED02
:00000001FF
